:020000040800F2
:1000000000000120290F00083D0B0008430B0008E9
:10001000490B00084F0B0008550B000800000000BA
:100020000000000000000000000000005B0B000862
:10003000690B000800000000770B0008850B000822
:10004000790F0008790F0008790F0008790F000870
:10005000790F0008910B0008790F0008790F00084C
:10006000790F0008790F0008790F0008790F000850
:10007000790F0008790F0008A10B0008B50B0008E4
:10008000790F0008790F0008790F000800000000C0
:10009000000000000000000000000000790F0008D0
:1000A000790F0008790F0008790F0008790F000810
:1000B000790F0008790F0008790F0008790F000800
:1000C000790F0008790F0008790F0008790F0008F0
:1000D000790F0008790F0008790F00080000000070
:1000E000790F0008790F0008790F00080000000060
:1000F000000000000000000000000000790F000870
:1001000000000000790F0008790F0008790F00083F
:1001100000000000000000000000000000000000DF
:10012000790F0008790F0008790F0008790F00088F
:10013000790F00080000000000000000000000002F
:10014000000000000000000000000000790F00081F
:10015000790F0008790F0008790F0008790F00085F
:10016000790F0008790F000800000000000000006F
:10017000000000000000000000000000000000007F
:1001800000000000790F00080000000000000000DF
:04019000790F0008DB
:1001940010B5054C237833B9044B13B10448AFF3BD
:1001A40000800123237010BD0C000020000000001B
:1001B400343C000808B5034B1BB103490348AFF3B3
:1001C400008008BD0000000010000020343C00083E
:1001D40053B94AB9002908BF00281CBF4FF0FF31AA
:1001E4004FF0FF3000F070B9ADF1080C6DE904CEAA
:1001F40000F006F8DDF804E0DDE9022304B07047FE
:100204002DE9F047089E0D4604460F46002B4AD1BF
:100214008A42944665D9B2FA82F343B102FA03FCE6
:10022400C3F120029F4020FA02F217439C404FEA98
:100234001C4E1FFA8CF5B7FBFEF1220C0EFB117756
:1002440042EA074201FB05F090420AD91CEB020284
:1002540001F1FF3780F01C81904240F2198102398C
:100264006244121AA4B2B2FBFEF00EFB102244EA5E
:10027400024400FB05F5A5420AD91CEB040400F175
:10028400FF3280F00781A54240F2048164440238C1
:1002940040EA0140641B00211EB1DC400023C6E992
:1002A4000043BDE8F0878B4208D9002E00F0ED80B2
:1002B4000021C6E900050846BDE8F087B3FA83F1DA
:1002C400002949D1AB4202D3824200F2F880841A59
:1002D40065EB030201201746002EE2D0C6E9004771
:1002E400DFE702B9FFDEB2FA82F3002B40F0908020
:1002F4008A1A4FEA1C471FFA8CFE0121B2FBF7F55C
:1003040007FB1520220C42EA00420EFB05F0904246
:1003140008D91CEB020205F1FF3802D2904200F228
:10032400CB804546121AA4B2B2FBF7F007FB1022A9
:1003340044EA02440EFB00FEA64508D91CEB040463
:1003440000F1FF3202D2A64500F2BB801046A4EBB6
:100354000E0440EA05409FE7C1F120078B4022FAD2
:1003640007FC4CEA030C05FA01F420FA07F3FD40FC
:100374004FEA1C492343B5FBF9F81FFA8CFE09FB2D
:1003840018551C0C44EA054408FB0EF5A54202FA74
:1003940001F200FA01F00BD91CEB040408F1FF3A56
:1003A40080F08880A54240F28580A8F10208644468
:1003B400641B9DB2B4FBF9F309FB134445EA0444FE
:1003C40003FB0EFEA64508D91CEB040403F1FF351C
:1003D4006CD2A6456AD9023B644443EA0843A3FBB2
:1003E4000295A4EB0E04AC42C846AE4656D353D095
:1003F40056B1B0EB080264EB0E0404FA07F7CA40E6
:10040400CC401743C6E9007418460021BDE8F087C4
:10041400C3F1200102FA03FC20FA01F225FA01F1EA
:100424009D402A434FEA1C471FFA8CFEB1FBF7F0AC
:1004340007FB1015110C41EA054100FB0EF58D4236
:1004440004FA03F408D91CEB010100F1FF382FD2A0
:100454008D422DD902386144491B92B2B1FBF7F5A4
:1004640007FB151142EA014205FB0EF1914208D93E
:100474001CEB020205F1FF3816D2914214D9023D59
:100484006244521A45EA004138E73146304608E7EB
:100494003946E6E61046FBE64845A9D2B9EB020820
:1004A40065EB0C0E013BA3E74546EAE72B4694E7D0
:1004B4004046D1E7D0467BE7023D624432E7084636
:1004C4000AE76444023842E7704700BF80B500AFD2
:1004D400064B074A1A60054800F0F5FE0346002B58
:1004E40001D000F067F900BF80BD00BF28000020E4
:1004F4000030024080B485B000AF78607B681B6830
:100504000B4A93420DD10023FB600A4B1B6B094A33
:1005140043F480531363074B1B6B03F48053FB605A
:10052400FB6800BF1437BD465DF8047B704700BF0D
:10053400003002400038024080B582B000AF002392
:100544007B60104B1B6B0F4A43F4001313630D4B7A
:100554001B6B03F400137B607B68002200210E20D8
:1005640000F07BFE0E2000F094FE002200210F20FC
:1005740000F073FE0F2000F08CFE00BF0837BD466C
:1005840080BD00BF0038024080B58AB000AF07F1DB
:10059400140300221A605A609A60DA601A61002318
:1005A4003B61274B1B6B264A43F004031363244B24
:1005B4001B6B03F004033B613B690023FB60204B8E
:1005C4001B6B1F4A43F0800313631D4B1B6B03F02B
:1005D4008003FB60FB680023BB60194B1B6B184A4C
:1005E40043F002031363164B1B6B03F00203BB605F
:1005F400BB6800237B60124B1B6B114A43F0010361
:1006040013630F4B1B6B03F001037B607B680022B9
:100614004FF420610B4801F0E1FA4FF420637B6151
:100624000123BB610023FB6100233B6207F1140338
:100634001946044801F04EF900BF2837BD4680BD75
:10064400003802400000024080B500AF094B0A4A5E
:100654001A60084B00225A60064B40F6FF729A60FB
:10066400044801F0D4FA0346002B01D000F0A2F8AC
:1006740000BF80BD300000200030004080B500AFD6
:1006840000F07AFC00F02AF8FFF77EFFFFF754FF32
:10069400FFF71CFF00F02CF900F0A6FA00F05AFB5B
:1006A400FFF7D2FF00F08CF800F0FAFB01224FF4C0
:1006B4000061094801F092FA4FF4FA7000F0CEFCA0
:1006C40000224FF40061044801F088FA4FF4FA70F4
:1006D40000F0C4FCEAE700BF0000024080B594B01B
:1006E40000AF07F1200330220021184603F074FA0A
:1006F40007F10C0300221A605A609A60DA601A61EA
:100704000023BB60294B1B6C284A43F080531364BD
:10071400264B1B6C03F08053BB60BB6800237B60DB
:10072400234B1B6823F44043214A43F400431360E2
:100734001F4B1B6803F440437B607B6809233B62C7
:100744004FF480337B6201237B630223BB634FF44A
:100754008003FB630F233B6460237B640223BB643D
:100764000423FB6407F12003184601F093FA0346BF
:10077400002B01D000F01EF80F23FB6002233B6125
:1007840090237B614FF48053BB610023FB6107F12D
:100794000C030021184601F0F5FC0346002B01D0A0
:1007A40000F008F800BF5037BD4680BD0038024055
:1007B4000070004080B400AF72B600BFFEE70000D6
:1007C40080B586B000AF3B1D00221A605A609A6063
:1007D400DA601A6100233B602D4B2E4A1A602C4BC1
:1007E40000225A602A4B7F229A60294BFF22DA604A
:1007F400274B00221A61264B00225A61244B002207
:100804009A61234801F058FF0346002B01D0FFF7FB
:10081400D1FF00233B7100237B710023BB710023B4
:100824003B6100237B613B1D01221946184801F0FE
:10083400B9FF0346002B01D0FFF7BCFF01233B7037
:1008440001237B700123BB700023FB703B46012214
:1008540019460F4802F040F80346002B01D0FFF779
:10086400A9FF002200210A4802F05BF90346002B8D
:1008740001D0FFF79FFF0021054802F0EFF903467E
:10088400002B01D0FFF796FF00BF1837BD4680BD8F
:100894003C0000200028004080B588B000AF78609C
:1008A40007F10C0300221A605A609A60DA601A6138
:1008B4007B681B680C4A934211D10223FB604FF4FE
:1008C4000073BB6107F10C03184601F007FE0346F1
:1008D400002B01D0FFF76EFF044B01221A6000BF0A
:1008E4002037BD4680BD00BF002800403C0E474273
:1008F40080B500AF174B184A1A60164B00225A6095
:10090400144B4FF400429A60124B4FF40062DA60C9
:10091400104B00221A610F4B00225A610D4B4FF409
:1009240000729A610B4B00221A620A4B00225A622F
:10093400084B4FF400529A62064B0A22DA620548C9
:1009440002F0CEF90346002B01D0FFF733FF00BFBE
:1009540080BD00BF5C0000200038004080B58AB034
:1009640000AF786007F1140300221A605A609A609D
:10097400DA601A617B681B68514A934240F09C809C
:1009840000233B614F4B1B6C4E4A43F4804313647A
:100994004C4B1B6C03F480433B613B690023FB60BD
:1009A400484B1B6B474A43F002031363454B1B6BD5
:1009B40003F00203FB60FB684FF488437B6102236E
:1009C400BB610023FB6103233B6205237B6207F1C8
:1009D400140319463C4800F07DFF4FF400437B614B
:1009E4000223BB610023FB6102233B6205237B627C
:1009F40007F114031946344800F06CFF334B344AB2
:100A04001A60324B00225A60304B40229A602F4BBE
:100A14000022DA602D4B4FF480621A612B4B4FF4A5
:100A240000625A61294B4FF400529A61274B00220D
:100A3400DA61264B00221A62244B00225A622348B0
:100A440000F05EFC0346002B01D0FFF7B3FE7B6889
:100A54001E4A9A641D4A7B6893631E4B1E4A1A60A1
:100A64001C4B00225A601B4B00229A60194B002237
:100A7400DA60184B4FF480621A61164B4FF400622F
:100A84005A61144B4FF400529A61124B0022DA61FE
:100A9400104B00221A620F4B00225A620D4800F0DC
:100AA4002FFC0346002B01D0FFF784FE7B68094A24
:100AB400DA64084A7B68936300BF2837BD4680BD6B
:100AC400003800400038024000040240DC000020EE
:100AD400706002403C0100205860024080B582B042
:100AE40000AF00237B60134B5B6C124A43F48043DA
:100AF4005364104B5B6C03F480437B607B6800237E
:100B04003B600C4B1B6C0B4A43F080531364094B42
:100B14001B6C03F080533B603B68002200210520DE
:100B240000F09BFB052000F0B4FB00BF0837BD4676
:100B340080BD00BF0038024080B400AFFEE780B43F
:100B440000AFFEE780B400AFFEE780B400AFFEE77D
:100B540080B400AFFEE780B400AF00BFBD465DF8CF
:100B6400047B704780B400AF00BFBD465DF8047BD2
:100B7400704780B400AF00BFBD465DF8047B70478A
:100B840080B500AF00F04AFA00BF80BD80B400AF6A
:100B940000BFBD465DF8047B7047000080B500AF20
:100BA400024800F05BFC00BF80BD00BF3C01002098
:100BB40080B500AF024800F051FC00BF80BD00BF0B
:100BC400DC00002080B400AF064BD3F88830054A1F
:100BD40043F47003C2F8883000BFBD465DF8047B5F
:100BE400704700BF00ED00E080B596B000AF07F19C
:100BF400480300221A605A609A60DA6007F14003E1
:100C040000221A605A6007F1240300221A605A6015
:100C14009A60DA601A615A619A613B1D20220021B0
:100C2400184602F0D9FF494B494A1A60474B002243
:100C34005A60464B00229A60444B4FF6FF72DA60CA
:100C4400424B00221A61414B00225A613F4B002261
:100C54009A613E4802F058F90346002B01D0FFF791
:100C6400A9FD4FF48053BB6407F148031946374884
:100C740002F060FB0346002B01D0FFF79BFD3348D5
:100C840002F091F90346002B01D0FFF793FD0023F6
:100C94003B6400237B6407F1400319462B4802F0B0
:100CA400B7FE0346002B01D0FFF784FD00237B62CF
:100CB4000023BB620023FB6200233B6300237B63AE
:100CC4000023BB630023FB6307F1240304221946BA
:100CD4001E4802F011FA0346002B01D0FFF76AFD0B
:100CE40007F1240308221946184802F005FA0346BE
:100CF400002B01D0FFF75EFD07F124030C221946F7
:100D0400124802F0F9F90346002B01D0FFF752FD17
:100D140000237B600023BB600023FB6000233B6156
:100D240000237B614FF40053BB6100233B623B1DF6
:100D34001946064802F0DAFE0346002B01D0FFF7FD
:100D440039FD00BF5837BD4680BD00BF9C0100205F
:100D54000000014080B58AB000AF07F120030022F3
:100D64001A605A603B1D00221A605A609A60DA6069
:100D74001A615A619A61264B264A1A60244B002252
:100D84005A60234B00229A60214B4FF6FF72DA60BF
:100D94001F4B00221A611E4B00229A611C4802F06C
:100DA4005BF90346002B01D0FFF704FD00233B62EF
:100DB40000237B6207F120031946154802F028FE40
:100DC4000346002B01D0FFF7F5FC60237B60002372
:100DD400BB600023FB6000237B613B1D0822194696
:100DE4000B4802F0E5F90346002B01D0FFF7E2FCC3
:100DF4003B1D0C221946064802F0DAF90346002B83
:100E040001D0FFF7D7FC00BF2837BD4680BD00BF27
:100E1400E40100200004004080B485B000AF786095
:100E24007B681B680B4A93420DD10023FB600A4B7D
:100E34005B6C094A43F001035364074B5B6C03F09A
:100E44000103FB60FB6800BF1437BD465DF8047BFB
:100E5400704700BF000001400038024080B485B0F4
:100E640000AF78607B681B680B4A93420DD1002366
:100E7400FB600A4B1B6C094A43F002031364074BE3
:100E84001B6C03F00203FB60FB6800BF1437BD4614
:100E94005DF8047B704700BF000400400038024046
:100EA40080B500AF0C4B0D4A1A600B4B00225A6000
:100EB400094B40229A60084B4022DA60064B00221C
:100EC4001A61054802F064FE0346002B01D0FFF7C7
:100ED40071FC00BF80BD00BF2C020020002C00402C
:100EE40080B485B000AF78607B681B680B4A93427E
:100EF4000DD10023FB600A4B1B6C094A43F40063C9
:100F04001364074B1B6C03F40063FB60FB6800BFB6
:100F14001437BD465DF8047B704700BF002C0040C9
:100F240000380240DFF834D00D480E490E4A002341
:100F340002E0D458C4500433C4188C42F9D30B4A89
:100F44000B4C002301E013600432A242FBD3FFF7F1
:100F540039FE02F049FEFFF791FB704700000120C3
:100F6400000000200C000020743C00080C0000204D
:100F740044020020FEE7000080B500AF0E4B1B6862
:100F84000D4A43F4007313600B4B1B680A4A43F485
:100F940080631360084B1B68074A43F48073136033
:100FA400032000F04FF90F2000F008F8FFF796FD3A
:100FB4000023184680BD00BF003C024080B582B0CB
:100FC40000AF7860124B1A68124B1B7819464FF425
:100FD4007A73B3FBF1F3B2FBF3F3184600F067F94D
:100FE4000346002B01D001230EE07B680F2B0AD8A7
:100FF400002279684FF0FF3000F02FF9064A7B6831
:101004001360002300E0012318460837BD4680BD65
:1010140000000020080000200400002080B400AF7D
:10102400064B1B781A46064B1B681344044A13608C
:1010340000BFBD465DF8047B704700BF0800002078
:101044004002002080B400AF034B1B681846BD4625
:101054005DF8047B704700BF4002002080B584B077
:1010640000AF7860FFF7EEFFB8607B68FB60FB6859
:10107400B3F1FF3F05D00A4B1B781A46FB681344B3
:10108400FB6000BFFFF7DEFF0246BB68D31AFA68B5
:101094009A42F7D800BF00BF1037BD4680BD00BFDD
:1010A4000800002080B485B000AF78607B6803F04E
:1010B4000703FB600C4BDB68BB60BA684FF6FF03A9
:1010C4001340BB60FB681A02BB68134343F0BF6361
:1010D40043F40033BB60044ABB68D36000BF1437D9
:1010E400BD465DF8047B704700ED00E080B400AFBE
:1010F400044BDB681B0A03F007031846BD465DF882
:10110400047B704700ED00E080B483B000AF034679
:10111400FB7197F90730002B0BDBFB7903F01F02FF
:10112400074997F907305B09012000FA02F241F8F8
:10113400232000BF0C37BD465DF8047B704700BF19
:1011440000E100E080B483B000AF03463960FB7176
:1011540097F90730002B0ADB3B68DAB20C4997F9A0
:1011640007301201D2B20B4483F800230AE03B6833
:10117400DAB20849FB7903F00F03043B1201D2B23F
:101184000B441A7600BF0C37BD465DF8047B7047EC
:1011940000E100E000ED00E080B489B000AFF86049
:1011A400B9607A60FB6803F00703FB61FB69C3F174
:1011B4000703042B28BF0423BB61FB690433062BFC
:1011C40002D9FB69033B00E000237B614FF0FF324F
:1011D400BB6902FA03F3DA43BB681A407B699A409D
:1011E4004FF0FF317B6901FA03F3D9437B680B406D
:1011F400134318462437BD465DF8047B704700004E
:1012040080B582B000AF78607B68013BB3F1807F2A
:1012140001D301230FE00A4A7B68013B53600F218D
:101224004FF0FF30FFF78EFF054B00229A60044B0E
:1012340007221A60002318460837BD4680BD00BF48
:1012440010E000E080B582B000AF78607868FFF706
:1012540029FF00BF0837BD4680BD80B586B000AF0A
:101264000346B9607A60FB7300237B61FFF73EFF9E
:1012740078617A68B9687869FFF78EFF024697F952
:101284000F3011461846FFF75DFF00BF1837BD4603
:1012940080BD80B582B000AF0346FB7197F907307B
:1012A4001846FFF731FF00BF0837BD4680BD80B543
:1012B40082B000AF78607868FFF7A2FF0346184653
:1012C4000837BD4680BD80B582B000AF78607B68CA
:1012D400002B01D101230EE07B685B79DBB2002B8C
:1012E40005D17B6800221A717868FFF703F97B68DF
:1012F40001225A71002318460837BD4680BD0000FC
:1013040080B586B000AF786000237B61FFF79AFE5A
:1013140038617B68002B01D1012399E07B680222AC
:1013240083F835207B68002283F834207B681B68AF
:101334001A687B681B6822F001021A600FE0FFF74D
:1013440081FE02463B69D31A052B08D97B6820220B
:101354005A657B68032283F83520032378E07B6891
:101364001B681B6803F00103002BE8D17B681B6832
:101374001B687B617A69384B13407B617B685A68D0
:101384007B689B681A437B68DB681A437B681B692C
:101394001A437B685B691A437B689B691A437B68C1
:1013A400DB691A437B681B6A13437A6913437B61C5
:1013B4007B685B6A042B07D17B68DA6A7B681B6BEA
:1013C40013437A6913437B617B681B687A691A60EB
:1013D4007B681B685B697B617B6923F007037B6126
:1013E4007B685B6A7A6913437B617B685B6A042B65
:1013F40017D17B689B6A7A6913437B617B68DB6ADC
:10140400002B0ED0786800F0E9F90346002B08D0D1
:101414007B6840225A657B68012283F835200123CA
:1014240016E07B681B687A695A61786800F0A0F955
:101434000346FB607B68DB6D3F229A40FB689A6041
:101444007B6800225A657B68012283F835200023DB
:1014540018461837BD4680BD3F8010F080B586B071
:1014640000AF78600023BB608E4B1B688E4AA2FBE2
:1014740003239B0A7B617B689B6D3B613B691B6813
:10148400FB607B68DB6D08229A40FB681340002BED
:101494001AD07B681B681B6803F00403002B13D06D
:1014A4007B681B681A687B681B6822F004021A6058
:1014B4007B68DB6D08229A403B699A607B685B6DB0
:1014C40043F001027B685A657B68DB6D01229A4018
:1014D400FB681340002B12D07B681B685B6903F028
:1014E4008003002B0BD07B68DB6D01229A403B69A3
:1014F4009A607B685B6D43F002027B685A657B6887
:10150400DB6D04229A40FB681340002B12D07B68E9
:101514001B681B6803F00203002B0BD07B68DB6D98
:1015240004229A403B699A607B685B6D43F0040235
:101534007B685A657B68DB6D10229A40FB68134018
:10154400002B43D07B681B681B6803F00803002B47
:101554003CD07B68DB6D10229A403B699A607B68C3
:101564001B681B6803F48023002B18D07B681B685E
:101574001B6803F40023002B08D17B681B6C002B31
:1015840024D07B681B6C786898471FE07B689B6C51
:10159400002B1BD07B689B6C7868984716E07B68AF
:1015A4001B681B6803F48073002B07D17B681B68DE
:1015B4001A687B681B6822F008021A607B681B6C3F
:1015C400002B03D07B681B6C786898477B68DB6DC5
:1015D40020229A40FB681340002B00F08F807B6828
:1015E4001B681B6803F01003002B00F087807B68E6
:1015F400DB6D20229A403B699A607B6893F8353012
:10160400DBB2052B36D17B681B681A687B681B68C4
:1016140022F016021A607B681B685A697B681B6893
:1016240022F080025A617B681B6C002B03D17B681B
:101634009B6C002B07D07B681B681A687B681B684F
:1016440022F008021A607B68DB6D3F229A403B69F6
:101654009A607B68012283F835207B68002283F836
:1016640034207B681B6D002B7ED07B681B6D7868F3
:10167400984779E07B681B681B6803F48023002B80
:101684001DD07B681B681B6803F40023002B0DD15D
:101694007B685B6C002B31D07B685B6C7868984707
:1016A4002CE000BF00000020B5814E1B7B68DB6B83
:1016B400002B23D07B68DB6B786898471EE07B683F
:1016C4001B681B6803F48073002B0FD17B681B68B5
:1016D4001A687B681B6822F010021A607B6801227A
:1016E40083F835207B68002283F834207B68DB6B29
:1016F400002B03D07B68DB6B786898477B685B6D55
:10170400002B32D07B685B6D03F00103002B22D0E9
:101714007B68052283F835207B681B681A687B6820
:101724001B6822F001021A60BB680133BB607A694E
:101734009A4207D37B681B681B6803F00103002BE4
:10174400F2D100E000BF7B68012283F835207B687A
:10175400002283F834207B68DB6C002B05D07B6887
:10176400DB6C7868984700E000BF1837BD4680BD41
:1017740080B485B000AF78607B681B68DBB2103B37
:10178400144AA2FB03231B09FB60134AFB6813449E
:101794001B781A467B68DA65FB68032B09D97B68DA
:1017A4001B6823F47F7323F003031A1D7B689A6577
:1017B40007E07B681B6823F47F7323F003037A68D4
:1017C40093657B689B6D18461437BD465DF8047BB2
:1017D400704700BFABAAAAAA5C3C000880B485B0DD
:1017E40000AF78600023FB737B689B6ABB607B68F7
:1017F4009B69002B1FD1BB68032B56D801A252F85A
:1018040023F000BF191800082B1800081918000845
:10181400AF1800087B68DB6A03F08073002B46D0A6
:101824000123FB7343E07B68DB6AB3F1C07F40D1E3
:101834000123FB733DE07B689B69B3F5005F21D115
:10184400BB68032B37D801A252F823F061180008B3
:101854006718000861180008791800080123FB7351
:1018640030E07B68DB6A03F08073002B25D0012312
:10187400FB7322E07B68DB6AB3F1C07F1FD10123D5
:10188400FB731CE0BB68022B03D9BB68032B03D09A
:1018940018E00123FB7315E07B68DB6A03F08073B7
:1018A400002B0ED00123FB730BE000BF0AE000BF46
:1018B40008E000BF06E000BF04E000BF02E000BF94
:1018C40000E000BFFB7B18461437BD465DF8047B7F
:1018D400704700BF80B489B000AF786039600023DE
:1018E4007B6100233B610023BB610023FB6159E161
:1018F4000122FB6902FA03F37B613B681B687A6986
:1019040013403B613A697B699A4240F048813B68E5
:101914005B6803F00303012B05D03B685B6803F0AD
:101924000303022B30D17B689B68BB61FB695B00BE
:10193400032202FA03F3DB43BA691340BB613B6839
:10194400DA68FB695B0002FA03F3BA691343BB610B
:101954007B68BA699A607B685B68BB610122FB693A
:1019640002FA03F3DB43BA691340BB613B685B686B
:101974001B0903F00102FB6902FA03F3BA6913437A
:10198400BB617B68BA695A603B685B6803F0030318
:10199400032B17D07B68DB68BB61FB695B00032208
:1019A40002FA03F3DB43BA691340BB613B689A68EC
:1019B400FB695B0002FA03F3BA691343BB617B68FA
:1019C400BA69DA603B685B6803F00303022B23D136
:1019D400FB69DA087B68083253F82230BB61FB6983
:1019E40003F007039B000F2202FA03F3DB43BA69F7
:1019F4001340BB613B681A69FB6903F007039B0052
:101A040002FA03F3BA691343BB61FB69DA087B6822
:101A14000832B96943F822107B681B68BB61FB6913
:101A24005B00032202FA03F3DB43BA691340BB6190
:101A34003B685B6803F00302FB695B0002FA03F393
:101A4400BA691343BB617B68BA691A603B685B6817
:101A540003F44033002B00F0A2800023FB60574BBB
:101A64005B6C564A43F480435364544B5B6C03F4FD
:101A74008043FB60FB68524AFB699B08023352F8BF
:101A84002330BB61FB6903F003039B000F2202FABE
:101A940003F3DB43BA691340BB617B68494A934251
:101AA40019D07B68484A934213D07B68474A9342D3
:101AB4000DD07B68464A934207D07B68454A9342DF
:101AC40001D1042308E0072306E0032304E00223F2
:101AD40002E0012300E00023FA6902F0030292000D
:101AE4009340BA691343BB613549FB699B080233D0
:101AF400BA6941F82320384B9B68BB613B69DB43DF
:101B0400BA691340BB613B685B6803F48013002B24
:101B140003D0BA693B691343BB612F4ABB69936025
:101B24002D4BDB68BB613B69DB43BA691340BB6186
:101B34003B685B6803F40013002B03D0BA693B696C
:101B44001343BB61244ABB69D360234B5B68BB610D
:101B54003B69DB43BA691340BB613B685B6803F4D0
:101B64000033002B03D0BA693B691343BB611A4AA3
:101B7400BB695360184B1B68BB613B69DB43BA69A3
:101B84001340BB613B685B6803F48033002B03D0D4
:101B9400BA693B691343BB610F4ABB691360FB69B4
:101BA4000133FB61FB690F2B7FF6A2AE00BF00BFC0
:101BB4002437BD465DF8047B704700BF00380240FF
:101BC40000380140000002400004024000080240C6
:101BD400000C024000100240003C014080B483B07D
:101BE40000AF78600B467B8013467B707B78002BBC
:101BF40003D07A887B689A6103E07B881A047B6847
:101C04009A6100BF0C37BD465DF8047B704780B510
:101C140084B000AF78607B68002B01D1012334E0ED
:101C24007B681B684CF6CC421A607B681B6845F2E3
:101C340055521A607B681B687A6852685A607B68E0
:101C44001B687A6892689A60FFF7FCF9F8600FE005
:101C5400FFF7F8F90246FB68D31A312B08D97B68E1
:101C64001B68DB6803F00303002B01D003230CE0A3
:101C74007B681B68DB6803F00303002BE8D17B68F7
:101C84001B684AF6AA221A60002318461037BD467C
:101C940080BD000080B586B000AF78607B68002B03
:101CA40001D1012367E27B681B6803F00103002B69
:101CB40075D0884B9B6803F00C03042B0CD0854B28
:101CC4009B6803F00C03082B12D1824B5B6803F46E
:101CD4008003B3F5800F0BD17E4B1B6803F40033F4
:101CE400002B5BD07B685B68002B57D1012342E259
:101CF4007B685B68B3F5803F06D1764B1B68754AF9
:101D040043F4803313601DE07B685B68B3F5A02F58
:101D14000CD1704B1B686F4A43F4802313606D4BE6
:101D24001B686C4A43F4803313600BE0694B1B68F7
:101D3400684A23F480331360664B1B68654A23F4B6
:101D4400802313607B685B68002B13D0FFF77AF95C
:101D5400386108E0FFF776F902463B69D31A642B31
:101D640001D9032307E25B4B1B6803F40033002B08
:101D7400F0D014E0FFF766F9386108E0FFF762F984
:101D840002463B69D31A642B01D90323F3E1514B77
:101D94001B6803F40033002BF0D100E000BF7B6824
:101DA4001B6803F00203002B63D04A4B9B6803F0CB
:101DB4000C03002B0BD0474B9B6803F00C03082B40
:101DC4001CD1444B5B6803F48003002B16D1414BB8
:101DD4001B6803F00203002B05D07B68DB68012B32
:101DE40001D00123C7E13B4B1B6823F0F8027B6859
:101DF4001B69DB00374913430B603AE07B68DB68FF
:101E0400002B20D0344B01221A60FFF71BF93861F4
:101E140008E0FFF717F902463B69D31A022B01D9F0
:101E24000323A8E12B4B1B6803F00203002BF0D023
:101E3400284B1B6823F0F8027B681B69DB002549EB
:101E440013430B6015E0244B00221A60FFF7FAF8E5
:101E5400386108E0FFF7F6F802463B69D31A022B13
:101E640001D9032387E11B4B1B6803F00203002BFA
:101E7400F0D17B681B6803F00803002B36D07B6825
:101E84005B69002B16D0154B01221A60FFF7DAF8B4
:101E9400386108E0FFF7D6F802463B69D31A022BF3
:101EA40001D9032367E10B4B5B6F03F00203002BA3
:101EB400F0D01BE0094B00221A60FFF7C3F8386129
:101EC4000EE0FFF7BFF802463B69D31A022B07D98D
:101ED400032350E10038024000004742800E47428D
:101EE400884B5B6F03F00203002BEAD17B681B680D
:101EF40003F00403002B00F097800023FB75814B53
:101F04001B6C03F08053002B0FD10023BB607D4B6F
:101F14001B6C7C4A43F0805313647A4B1B6C03F0B4
:101F24008053BB60BB680123FB75774B1B6803F4CC
:101F34008073002B18D1744B1B68734A43F480736D
:101F44001360FFF77FF8386108E0FFF77BF802467B
:101F54003B69D31A022B01D903230CE16A4B1B689A
:101F640003F48073002BF0D07B689B68012B06D1AF
:101F7400644B1B6F634A43F0010313671CE07B68E7
:101F84009B68052B0CD15F4B1B6F5E4A43F0040327
:101F940013675C4B1B6F5B4A43F0010313670BE051
:101FA400584B1B6F574A23F001031367554B1B6FA4
:101FB400544A23F0040313677B689B68002B15D0F5
:101FC400FFF740F838610AE0FFF73CF802463B6946
:101FD400D31A41F28832934201D90323CBE0494B0F
:101FE4001B6F03F00203002BEED014E0FFF72AF876
:101FF40038610AE0FFF726F802463B69D31A41F23A
:102004008832934201D90323B5E03E4B1B6F03F0A2
:102014000203002BEED1FB7D012B05D1394B1B6C48
:10202400384A23F0805313647B689B69002B00F0CB
:10203400A180344B9B6803F00C03082B5CD07B68B5
:102044009B69022B41D1314B00221A60FEF7FAFF43
:10205400386108E0FEF7F6FF02463B69D31A022B0B
:1020640001D9032387E0274B1B6803F00073002B7F
:10207400F0D17B68DA697B681B6A1A437B685B6A08
:102084009B011A437B689B6A5B08013B1B041A4350
:102094007B68DB6A1B061B4913434B601B4B012205
:1020A4001A60FEF7CFFF386108E0FEF7CBFF024667
:1020B4003B69D31A022B01D903235CE0114B1B6843
:1020C40003F00073002BF0D054E0104B00221A6090
:1020D400FEF7B8FF386108E0FEF7B4FF02463B693B
:1020E400D31A022B01D9032345E0064B1B6803F0E6
:1020F4000073002BF0D13DE07B689B69012B07D175
:10210400012338E00038024000700040600047427C
:102114001B4B5B68FB607B689B69012B28D0FB68C9
:1021240003F480027B68DB699A4221D1FB6803F0E7
:102134003F027B681B6A9A421AD1FA6847F6C07359
:1021440013407A68526A9201934211D1FB6803F4F6
:1021540040327B689B6A5B08013B1B049A4207D1AF
:10216400FB6803F070627B68DB6A1B069A4201D04D
:10217400012300E0002318461837BD4680BD00BF88
:102184000038024080B584B000AF786039607B6865
:10219400002B01D10123CCE0684B1B6803F007033B
:1021A4003A689A420CD9654B3A68D2B21A70634BBA
:1021B4001B6803F007033A689A4201D00123B8E090
:1021C4007B681B6803F00203002B20D07B681B682C
:1021D40003F00403002B05D0594B9B68584A43F481
:1021E400E05393607B681B6803F00803002B05D061
:1021F400534B9B68524A43F460439360504B9B6833
:1022040023F0F0027B689B684D4913438B607B6825
:102214001B6803F00103002B44D07B685B68012B2F
:1022240007D1474B1B6803F40033002B19D101235A
:102234007FE07B685B68022B03D07B685B68032BC1
:1022440007D13F4B1B6803F00073002B09D1012316
:102254006FE03B4B1B6803F00203002B01D1012309
:1022640067E0374B9B6823F003027B685B68344963
:1022740013438B60FEF7E6FEF8600AE0FEF7E2FE29
:102284000246FB68D31A41F28832934201D90323F0
:102294004FE02B4B9B6803F00C027B685B689B0050
:1022A4009A42EBD1254B1B6803F007033A689A4224
:1022B4000CD2224B3A68D2B21A70204B1B6803F03E
:1022C40007033A689A4201D0012332E07B681B6815
:1022D40003F00403002B08D0194B9B6823F4E0524D
:1022E4007B68DB68164913438B607B681B6803F0CB
:1022F4000803002B09D0124B9B6823F460427B68CF
:102304001B69DB000E4913438B6000F021F8024681
:102314000B4B9B681B0903F00F030A49CB5C22FAA1
:1023240003F3094A1360094B1B681846FEF746FE7F
:10233400002318461037BD4680BD00BF003C024054
:10234400003802404C3C000800000020040000203B
:102354002DE9B04F90B000AF00237B630023FB63F3
:1023640000233B630023BB63594B9B6803F00C03BE
:10237400082B0DD0082B00F2A180002B02D0042BD7
:1023840003D09BE0534BBB639BE0534BBB6398E090
:102394004F4B5B6803F03F037B634D4B5B6803F477
:1023A4008003002B28D04A4B5B689B0900223B62C8
:1023B4007A623B6AC3F308000021474B03FB01F236
:1023C400002300FB03F31344434AA0FB0212FA6206
:1023D4000A46BA62FA6A1344FB627B6B0022BB6151
:1023E400FA61D7E90623D7E90A01FDF7F1FE0246AF
:1023F4000B461346FB6353E0354B5B689B09002295
:102404003B617A613B69C3F3080A4FF0000B524603
:102414005B464FF000004FF00001590141EAD261E0
:10242400500102460B46B2EB0A0863EB0B094FF06E
:1024340000024FF000034FEA891343EA98634FEA1E
:102444008812B2EB080463EB09054FF000024FF069
:102454000003EB0043EA5473E20014461D4614EBF8
:102464000A033B6045EB0B037B604FF000024FF027
:102474000003D7E9004529468B02214643EA9153DC
:1024840021468A02104619467B6B0022BB60FA6023
:10249400D7E90223FDF79CFE02460B461346FB6375
:1024A4000B4B5B681B0C03F0030301335B003B63C2
:1024B400FA6B3B6BB2FBF3F3BB6302E0054BBB630C
:1024C40000BFBB6B18464037BD46BDE8B08F00BFA8
:1024D400003802400024F40040787D0180B586B0C5
:1024E40000AF786000237B6100233B617B681B683D
:1024F40003F00103002B05D17B681B6803F0040380
:10250400002B35D0674B00221A60FEF79BFD7861E3
:1025140008E0FEF797FD02467B69D31A022B01D926
:102524000323BAE0604B1B6803F00063002BF0D177
:102534007B685B689A017B689B681B075A49134355
:10254400C1F88430574B01221A60FEF77BFD786195
:1025540008E0FEF777FD02467B69D31A022B01D906
:1025640003239AE0504B1B6803F00063002BF0D068
:102574007B681B6803F00203002B00F083800023B8
:10258400FB60494B1B6C484A43F080531364464B31
:102594001B6C03F08053FB60FB68444B1B68434A8D
:1025A40043F480731360FEF74DFD786108E0FEF795
:1025B40049FD02467B69D31A022B01D903236CE03F
:1025C4003A4B1B6803F48073002BF0D0364B1B6F1F
:1025D40003F440733B613B69002B2FD07B68DB68BD
:1025E40003F440733A699A4228D02F4B1B6F23F4AB
:1025F40040733B612E4B01221A602D4B00221A605E
:10260400294A3B691367284B1B6F03F00103012B15
:1026140014D1FEF717FD78610AE0FEF713FD0246B8
:102624007B69D31A41F28832934201D9032334E0FF
:102634001D4B1B6F03F00203002BEED07B68DB689D
:1026440003F44073B3F5407F0DD1174B9B6823F41B
:10265400F8127B68DB6823F0704323F4407312495B
:1026640013438B6005E0104B9B680F4A23F4F81367
:1026740093600D4B1A6F7B68DB68C3F30B030A4945
:1026840013430B677B681B6803F00803002B03D01C
:102694007B681A7C074B1A60002318461837BD461E
:1026A40080BD00BF6800474200380240007000400F
:1026B400400E4742E011474280B584B000AF7860D5
:1026C4000123FB737B68002B01D1012366E07B6847
:1026D4005B7FDBB2002B05D17B6800221A77786818
:1026E400FEF7DAF87B6802225A777B681B68CA22F5
:1026F4005A627B681B6853225A62786800F098F922
:102704000346FB73FB7B002B2CD17B681B689B6807
:102714007A68126823F4E00323F0400393607B6833
:102724001B6899687B685A687B681B691A437B68D5
:102734005B691A437B681B680A439A607B681B6861
:102744007A68D2681A617B681B6819697B689B6820
:102754001A047B681B680A431A61786800F09FF9C1
:102764000346FB73FB7B002B13D17B681B681A6C3D
:102774007B681B6822F480221A647B681B68196CCE
:102784007B689A697B681B680A431A647B68012228
:102794005A777B681B68FF225A62FB7B1846103706
:1027A400BD4680BD90B587B000AFF860B9607A606F
:1027B40000237B61FB681B7F012B01D1022387E08F
:1027C400FB6801221A77FB6802225A777B68002B88
:1027D40026D1FB681B689B6803F04003002B02D1E1
:1027E400BB680022DA70BB681B78184600F07CF9DD
:1027F40003461C04BB685B78184600F075F9034671
:102804001B021C43BB689B78184600F06DF9034615
:1028140044EA0302BB68DB789B0513437B6118E041
:10282400FB681B689B6803F04003002B02D1BB6864
:102834000022DA70BB681B781A04BB685B781B0241
:102844001343BA6892781A43BB68DB789B05134339
:102854007B61FB681B68CA225A62FB681B685322AF
:102864005A62F86800F0E4F80346FB74FB7C002B22
:1028740020D1FB681A687B6903F07F3323F0FE43A1
:102884001360FB681B689A68FB681B6822F480224B
:102894009A60FB681B689968BB68DA68BB681B6947
:1028A4001A43FB681B680A439A60F86800F0F7F85B
:1028B4000346FB74FB7C002B02D1FB6801225A7790
:1028C400FB681B68FF225A62FB6800221A77FB7CB4
:1028D40018461C37BD4690BD90B587B000AFF86070
:1028E400B9607A6000237B61FB681B7F012B01D1F7
:1028F400022371E0FB6801221A77FB6802225A77EF
:102904007B68002B0ED1BB685B7803F01003002BAF
:1029140008D0BB685B7823F01003DBB20A33DAB269
:10292400BB685A707B68002B1CD1BB68DB781846E7
:1029340000F0DAF803461C04BB685B78184600F024
:10294400D3F803461B021C43BB689B78184600F06F
:10295400CBF8034644EA0302BB681B785B031343CA
:102964007B610EE0BB68DB781A04BB685B781B02F2
:102974001343BA6892781A43BB681B785B0313430A
:102984007B61FB681B68CA225A62FB681B6853227E
:102994005A62F86800F04CF80346FB74FB7C002B89
:1029A4000CD1FB681A687B6923F07F4323F0C003D2
:1029B4005360F86800F073F80346FB74FB7C002B4B
:1029C40002D1FB6801225A77FB681B68FF225A6216
:1029D400FB6800221A77FB7C18461C37BD4690BD65
:1029E40080B584B000AF78600023FB607B681B680F
:1029F400DA687B681B6822F0A002DA60FEF722FB2B
:102A0400F86009E0FEF71EFB0246FB68D31AB3F533
:102A14007A7F01D9032307E07B681B68DB6803F036
:102A24002003002BEED0002318461037BD4680BD8E
:102A340080B584B000AF78600023BB600023FB73D3
:102A44007B681B68DB6803F04003002B22D17B68A2
:102A54001B68DA687B681B6842F08002DA60FEF764
:102A6400F1FAB8600CE0FEF7EDFA0246BB68D31A3F
:102A7400B3F57A7F04D97B6804225A770123FB7368
:102A84007B681B68DB6803F04003002B02D1FB7BEF
:102A9400012BE8D1FB7B18461037BD4680BD80B5BD
:102AA40084B000AF78600023FB737B681B68DA682E
:102AB4007B681B6822F08002DA607B681B689B6875
:102AC40003F02003002B0AD17868FFF789FF03463F
:102AD400002B04D07B6804225A770123FB73FB7B11
:102AE40018461037BD4680BD80B485B000AF03469C
:102AF400FB710023FB7305E0FB7B0133FB73FB7964
:102B04000A3BFB71FB79092BF6D8FB7B1B01DAB27C
:102B1400FB791343DBB218461437BD465DF8047BDA
:102B2400704780B586B000AFF860B9607A60002362
:102B34007B61FB681B7F012B01D102238AE0FB68C8
:102B440001221A77FB6802225A77FB681B68CA22A3
:102B54005A62FB681B6853225A62FB681B689B68B5
:102B640003F48063002B1ED0FEF76CFA786113E047
:102B7400FEF768FA02467B69D31AB3F57A7F0BD95C
:102B8400FB681B68FF225A62FB6803225A77FB68C2
:102B940000221A7703235DE0FB681B68DB6803F0FF
:102BA4000403002BE4D1FB681B689A68FB681B686C
:102BB40022F480629A60FB681B68DB68DAB2FB6807
:102BC4001B6862F49062DA60FEF73CFA786113E005
:102BD400FEF738FA02467B69D31AB3F57A7F0BD92C
:102BE400FB681B68FF225A62FB6803225A77FB6862
:102BF40000221A7703232DE0FB681B68DB6803F0CF
:102C04000403002BE4D0FB681B689A68FB681B680C
:102C140022F007029A60FB681B689968FB681B68CE
:102C24007A680A439A60FB681B68BA685A61FB6851
:102C34001B689A68FB681B6842F480629A60FB68B0
:102C44001B68FF225A62FB6801225A77FB68002244
:102C54001A77002318461837BD4680BD80B483B068
:102C640000AF786039607B681B7F012B01D10223A0
:102C740030E07B6801221A777B6802225A777B68EE
:102C84001B68CA225A627B681B6853225A627B689B
:102C94001B689A687B681B6822F400229A607B6830
:102CA4001B6899687B681B683A680A439A607B686A
:102CB4001B689A687B681B6842F400029A607B6810
:102CC4001B68FF225A627B6801225A777B680022C4
:102CD4001A77002318460C37BD465DF8047B70470D
:102CE40080B582B000AF78607B68002B01D10123EE
:102CF400A3E07B685B6A002B08D17B685B68B3F553
:102D0400827F09D07B680022DA6105E07B680022BB
:102D14001A617B6800225A617B6893F85130DBB2F8
:102D2400002B26D17B68002283F850207B68454A1B
:102D34009A657B68444ADA657B68444A1A667B680C
:102D4400434A5A667B68434A9A667B68424ADA6613
:102D54007B68424A1A677B68414A5A677B689B6F63
:102D6400002B02D17B683F4A9A677B689B6F786827
:102D740098477B68022283F851207B681B681A6895
:102D84007B681B6822F040021A607B685B6803F46E
:102D940082727B689B6803F404431A437B68DB6894
:102DA40003F400631A437B681B6903F002031A43AC
:102DB4007B685B6903F001031A437B689B6903F436
:102DC40000731A437B68DB6903F038031A437B689A
:102DD4001B6A03F0800342EA03017B689B6A03F4E5
:102DE40000527B681B680A431A607B689B691B0C52
:102DF40003F004017B685B6A03F010027B681B68C4
:102E04000A435A607B689B6AB3F5005F05D17B680F
:102E1400DA6A7B681B6892B21A617B681B68DA699C
:102E24007B681B6822F40062DA617B6800225A65C1
:102E34007B68012283F85120002318460837BD46D9
:102E440080BD00BF6D2E0008812E0008952E00085D
:102E5400A92E0008BD2E0008D12E0008E52E00087A
:102E6400F92E00086109000880B483B000AF7860CF
:102E740000BF0C37BD465DF8047B704780B483B057
:102E840000AF786000BF0C37BD465DF8047B704727
:102E940080B483B000AF786000BF0C37BD465DF8E6
:102EA400047B704780B483B000AF786000BF0C37F8
:102EB400BD465DF8047B704780B483B000AF786092
:102EC40000BF0C37BD465DF8047B704780B483B007
:102ED40000AF786000BF0C37BD465DF8047B7047D7
:102EE40080B483B000AF786000BF0C37BD465DF896
:102EF400047B704780B483B000AF786000BF0C37A8
:102F0400BD465DF8047B704780B582B000AF786041
:102F14007B68002B01D1012341E07B6893F83D30AD
:102F2400DBB2002B06D17B68002283F83C20786852
:102F3400FDF772FF7B68022283F83D207B681A68E4
:102F44007B6804331946104600F0BCFA7B68012202
:102F540083F846207B68012283F83E207B680122A7
:102F640083F83F207B68012283F840207B6801229C
:102F740083F841207B68012283F842207B68012288
:102F840083F843207B68012283F844207B68012274
:102F940083F845207B68012283F83D2000231846EE
:102FA4000837BD4680BD80B582B000AF78607B68CD
:102FB400002B01D1012341E07B6893F83D30DBB263
:102FC400002B06D17B68002283F83C20786800F04F
:102FD40039F87B68022283F83D207B681A687B6895
:102FE40004331946104600F06DFA7B68012283F819
:102FF40046207B68012283F83E207B68012283F807
:103004003F207B68012283F840207B68012283F8FB
:1030140041207B68012283F842207B68012283F8E7
:1030240043207B68012283F844207B68012283F8D3
:1030340045207B68012283F83D2000231846083789
:10304400BD4680BD80B483B000AF786000BF0C374C
:10305400BD465DF8047B704780B582B000AF7860F0
:103064007B68002B01D1012341E07B6893F83D305C
:10307400DBB2002B06D17B68002283F83C20786801
:10308400FDF7ECFE7B68022283F83D207B681A681A
:103094007B6804331946104600F014FA7B68012259
:1030A40083F846207B68012283F83E207B68012256
:1030B40083F83F207B68012283F840207B6801224B
:1030C40083F841207B68012283F842207B68012237
:1030D40083F843207B68012283F844207B68012223
:1030E40083F845207B68012283F83D20002318469D
:1030F4000837BD4680BD000080B586B000AFF860DB
:10310400B9607A600023FB75FB6893F83C30012BAF
:1031140001D1022348E0FB68012283F83C207B684C
:103124000C2B39D801A252F823F000BF65310008F6
:103134009D3100089D3100089D310008733100085D
:103144009D3100089D3100089D310008813100083F
:103154009D3100089D3100089D3100088F31000821
:10316400FB681B68B968184600F02CFA17E0FB6886
:103174001B68B968184600F08BFA10E0FB681B68FE
:10318400B968184600F0F0FA09E0FB681B68B968F2
:10319400184600F053FB02E00123FB7500BFFB68F7
:1031A400002283F83C20FB7D18461837BD4680BDBD
:1031B40080B586B000AFF860B9607A600023FB7513
:1031C400FB6893F83C30012B01D10223AEE0FB688D
:1031D400012283F83C207B680C2B00F29F8001A223
:1031E40052F823F01D32000821330008213300086F
:1031F400213300085D320008213300082133000820
:10320400213300089F3200082133000821330008CD
:1032140021330008DF320008FB681B68B9681846D0
:1032240000F0D0F9FB681B689A69FB681B6842F0E0
:1032340008029A61FB681B689A69FB681B6822F0A4
:1032440004029A61FB681B689969BB681A69FB6888
:103254001B680A439A6164E0FB681B68B9681846F6
:1032640000F016FAFB681B689A69FB681B6842F455
:1032740000629A61FB681B689A69FB681B6822F408
:1032840080629A61FB681B689969BB681B691A02B2
:10329400FB681B680A439A6143E0FB681B68B968D2
:1032A400184600F061FAFB681B68DA69FB681B6862
:1032B40042F00802DA61FB681B68DA69FB681B6884
:1032C40022F00402DA61FB681B68D969BB681A69D9
:1032D400FB681B680A43DA6123E0FB681B68B96872
:1032E400184600F0ABFAFB681B68DA69FB681B68D8
:1032F40042F40062DA61FB681B68DA69FB681B68E8
:1033040022F48062DA61FB681B68D969BB681B69B7
:103314001A02FB681B680A43DA6102E00123FB75A9
:1033240000BFFB68002283F83C20FB7D1846183759
:10333400BD4680BD80B584B000AF7860396000239D
:10334400FB737B6893F83C30012B01D10223B4E07A
:103354007B68012283F83C207B68022283F83D20AD
:103364007B681B689B68BB60BB6823F07703BB600A
:10337400BB6823F47F43BB607B681B68BA689A60B0
:103384003B681B68B3F5005F3ED0B3F5005F00F205
:103394008780B3F5805F00F08680B3F5805F7FD8C7
:1033A400702B1AD0702B7BD8602B50D0602B77D821
:1033B400502B3CD0502B73D8402B58D0402B6FD877
:1033C400302B64D0302B6BD8202B60D0202B67D8C7
:1033D400002B5CD0102B5AD062E07B6818683B68E5
:1033E40099683B685A683B68DB6800F0F1FA7B68CF
:1033F4001B689B68BB60BB6843F07703BB607B685A
:103404001B68BA689A604FE07B6818683B689968E3
:103414003B685A683B68DB6800F0DAFA7B681B6833
:103424009A687B681B6842F480429A603CE07B683F
:1034340018683B6859683B68DB681A4600F04EFA26
:103444007B681B685021184600F0A7FA2CE07B68C3
:1034540018683B6859683B68DB681A4600F06DFAE7
:103464007B681B686021184600F097FA1CE07B68B3
:1034740018683B6859683B68DB681A4600F02EFA06
:103484007B681B684021184600F087FA0CE07B68D3
:103494001A683B681B681946104600F07EFA03E080
:1034A4000123FB7300E000BF7B68012283F83D2009
:1034B4007B68002283F83C20FB7B18461037BD460E
:1034C40080BD000080B485B000AF786039607B684F
:1034D4001B68FB607B68344A93420FD07B68B3F16E
:1034E400804F0BD07B68314A934207D07B68304AC7
:1034F400934203D07B682F4A934208D1FB6823F0A0
:103504007003FB603B685B68FA681343FB607B688D
:10351400254A93421BD07B68B3F1804F17D07B6858
:10352400224A934213D07B68214A93420FD07B688E
:10353400204A93420BD07B681F4A934207D07B6892
:103544001E4A934203D07B681D4A934208D1FB680C
:1035540023F44073FB603B68DB68FA681343FB6049
:10356400FB6823F080023B685B691343FB607B6864
:10357400FA681A603B689A687B68DA623B681A6882
:103584007B689A627B68084A934203D13B681A6954
:103594007B681A637B6801225A6100BF1437BD46F9
:1035A4005DF8047B704700BF000001400004004048
:1035B40000080040000C004000400140004401406D
:1035C4000048014080B487B000AF786039607B6800
:1035D4001B6A23F001027B681A627B681B6A7B61A9
:1035E4007B685B683B617B689B69FB60FB6823F0DD
:1035F4007003FB60FB6823F00303FB603B681B68FC
:10360400FA681343FB607B6923F002037B613B6828
:103614009B687A6913437B617B681C4A93420CD193
:103624007B6923F008037B613B68DB687A69134399
:103634007B617B6923F004037B617B68134A9342BB
:1036440011D13B6923F480733B613B6923F400731C
:103654003B613B685B693A6913433B613B689B6927
:103664003A6913433B617B683A695A607B68FA683C
:103674009A613B685A687B685A637B687A691A6204
:1036840000BF1C37BD465DF8047B70470000014055
:1036940080B487B000AF786039607B681B6A23F020
:1036A40010027B681A627B681B6A7B617B685B68BB
:1036B4003B617B689B69FB60FB6823F4E043FB6030
:1036C400FB6823F44073FB603B681B681B02FA68C9
:1036D4001343FB607B6923F020037B613B689B6899
:1036E4001B017A6913437B617B681E4A93420DD1A7
:1036F4007B6923F080037B613B68DB681B017A698B
:1037040013437B617B6923F040037B617B68154A2B
:10371400934213D13B6923F480633B613B6923F4F7
:1037240000633B613B685B699B003A6913433B61FF
:103734003B689B699B003A6913433B617B683A6928
:103744005A607B68FA689A613B685A687B689A6336
:103754007B687A691A6200BF1C37BD465DF8047B3A
:10376400704700BF0000014080B487B000AF7860AC
:1037740039607B681B6A23F480727B681A627B68F9
:103784001B6A7B617B685B683B617B68DB69FB6010
:10379400FB6823F07003FB60FB6823F00303FB600A
:1037A4003B681B68FA681343FB607B6923F400736E
:1037B4007B613B689B681B027A6913437B617B686E
:1037C4001D4A93420DD17B6923F400637B613B68FE
:1037D400DB681B027A6913437B617B6923F4806392
:1037E4007B617B68144A934213D13B6923F4805371
:1037F4003B613B6923F400533B613B685B691B01FC
:103804003A6913433B613B689B691B013A69134363
:103814003B617B683A695A607B68FA68DA613B68A5
:103824005A687B68DA637B687A691A6200BF1C375E
:10383400BD465DF8047B70470000014080B487B04A
:1038440000AF786039607B681B6A23F480527B6820
:103854001A627B681B6A3B617B685B687B617B687F
:10386400DB69FB60FB6823F4E043FB60FB6823F443
:103874004073FB603B681B681B02FA681343FB60E0
:103884003B6923F400533B613B689B681B033A6923
:1038940013433B617B68104A934209D17B6923F44B
:1038A40080437B613B685B699B017A6913437B615D
:1038B4007B687A695A607B68FA68DA613B685A689F
:1038C4007B681A647B683A691A6200BF1C37BD467C
:1038D4005DF8047B704700BF0000014080B487B0EE
:1038E40000AFF860B9607A60FB681B6A7B61FB68B3
:1038F4001B6A23F00102FB681A62FB689B693B6147
:103904003B6923F0F0033B617B681B013A69134375
:103914003B617B6923F00A037B617A69BB681343CB
:103924007B61FB683A699A61FB687A691A6200BF35
:103934001C37BD465DF8047B704780B487B000AF88
:10394400F860B9607A60FB681B6A23F01002FB68B8
:103954001A62FB689B697B61FB681B6A3B617B693C
:1039640023F470437B617B681B037A6913437B6197
:103974003B6923F0A0033B61BB681B013A69134315
:103984003B61FB687A699A61FB683A691A6200BF15
:103994001C37BD465DF8047B704780B485B000AF2A
:1039A400786039607B689B68FB60FB6823F0700378
:1039B400FB603A68FB68134343F00703FB607B68D2
:1039C400FA689A6000BF1437BD465DF8047B7047FF
:1039D40080B487B000AFF860B9607A603B60FB6880
:1039E4009B687B617B6923F47F437B613B681A029C
:1039F4007B681A43BB6813437A6913437B61FB6892
:103A04007A699A6000BF1C37BD465DF8047B704735
:103A140080B485B000AF786039607B6893F83C303F
:103A2400012B01D1022350E07B68012283F83C2062
:103A34007B68022283F83D207B681B685B68FB601F
:103A44007B681B689B68BB60FB6823F07003FB60AA
:103A54003B681B68FA681343FB607B681B68FA6861
:103A64005A607B681B681C4A934218D07B681B68A9
:103A7400B3F1804F13D07B681B68184A93420ED071
:103A84007B681B68164A934209D07B681B68154AF9
:103A9400934204D07B681B68134A93420CD1BB68E1
:103AA40023F08003BB603B685B68BA681343BB6068
:103AB4007B681B68BA689A607B68012283F83D20A2
:103AC4007B68002283F83C20002318461437BD4647
:103AD4005DF8047B704700BF000001400004004013
:103AE40000080040000C00400040014080B485B054
:103AF40000AF786039600023FB607B6893F83C304A
:103B0400012B01D102233DE07B68012283F83C2094
:103B1400FB6823F0FF023B68DB681343FB60FB6830
:103B240023F440723B689B681343FB60FB6823F4F7
:103B340080623B685B681343FB60FB6823F40062AC
:103B44003B681B681343FB60FB6823F480523B68AB
:103B54001B691343FB60FB6823F400523B685B69F9
:103B64001343FB60FB6823F480423B68DB69134327
:103B7400FB607B681B68FA685A647B68002283F8E0
:103B84003C20002318461437BD465DF8047B70477B
:103B940080B582B000AF78607B68002B01D101232F
:103BA40016E07868FDF79CF97B68DA687B681B6827
:103BB40042F080021A607B681A697B685B6842EA9B
:103BC40003017B689A687B681B680A435A60002378
:103BD40018460837BD4680BD02440346934200D1CF
:103BE400704703F8011BF9E770B50D4D0D4C641BCC
:103BF400A4100026A64209D10B4D0C4C00F018F875
:103C0400641BA4100026A64205D170BD55F8043BE0
:103C140098470136EEE755F8043B98470136F2E73A
:103C24006C3C00086C3C00086C3C0008703C0008CC
:103C3400F8B500BFF8BC08BC9E467047F8B500BF95
:083C4400F8BC08BC9E46704765
:103C4C000000000000000000010203040607080940
:083C5C00000610160006101608
:083C6400A0C5FF7F0100000074
:043C6C00B901000892
:043C700095010008B2
:0C3C74000024F40010000000010000001B
:0400000508000F29B7
:00000001FF
